:060000000A128A110E280D
:10000800FE00030EF0000A08F1007F08F2000A1251
:100018008A1135280A128A111128F30183010A125C
:100028008A111628831603130610831203138E01F0
:100038008F019010101290121014C3309600503097
:1000480095000C11831603130C150B178B178312CD
:100058000313171497141711971531280A128A11C8
:100068000E28831203130C1D3A283B284928013017
:10007800FF007F08F3070A307306031D442845284C
:10008800482801308606F3010C117208FF00710838
:0C0098008A00700E8300FE0E7E0E090030
:02400E00713F00
:00000001FF
